{
  "abi": [
    {
      "inputs": [],
      "stateMutability": "nonpayable",
      "type": "constructor"
    },
    {
      "anonymous": false,
      "inputs": [
        {
          "indexed": false,
          "internalType": "uint256",
          "name": "game_id",
          "type": "uint256"
        },
        {
          "indexed": false,
          "internalType": "address",
          "name": "player",
          "type": "address"
        },
        {
          "indexed": false,
          "internalType": "uint256",
          "name": "wager",
          "type": "uint256"
        }
      ],
      "name": "GameCreated",
      "type": "event"
    },
    {
      "anonymous": false,
      "inputs": [
        {
          "indexed": false,
          "internalType": "uint256",
          "name": "game_id",
          "type": "uint256"
        },
        {
          "indexed": false,
          "internalType": "address",
          "name": "winner",
          "type": "address"
        }
      ],
      "name": "GameFinished",
      "type": "event"
    },
    {
      "anonymous": false,
      "inputs": [
        {
          "indexed": false,
          "internalType": "uint256",
          "name": "game_id",
          "type": "uint256"
        },
        {
          "indexed": false,
          "internalType": "address",
          "name": "player",
          "type": "address"
        }
      ],
      "name": "GameJoined",
      "type": "event"
    },
    {
      "inputs": [
        {
          "internalType": "uint256",
          "name": "",
          "type": "uint256"
        }
      ],
      "name": "GAMES",
      "outputs": [
        {
          "internalType": "address",
          "name": "_player1",
          "type": "address"
        },
        {
          "internalType": "address",
          "name": "_player2",
          "type": "address"
        },
        {
          "internalType": "uint256",
          "name": "_wager",
          "type": "uint256"
        },
        {
          "internalType": "bool",
          "name": "_turn",
          "type": "bool"
        },
        {
          "internalType": "uint256",
          "name": "_blockStart",
          "type": "uint256"
        },
        {
          "internalType": "uint256",
          "name": "_blockEnd",
          "type": "uint256"
        },
        {
          "internalType": "address",
          "name": "winner",
          "type": "address"
        }
      ],
      "stateMutability": "view",
      "type": "function"
    },
    {
      "inputs": [
        {
          "internalType": "uint256",
          "name": "game_id",
          "type": "uint256"
        },
        {
          "internalType": "address",
          "name": "player",
          "type": "address"
        }
      ],
      "name": "claimWin",
      "outputs": [],
      "stateMutability": "payable",
      "type": "function"
    },
    {
      "inputs": [],
      "name": "createGame",
      "outputs": [],
      "stateMutability": "payable",
      "type": "function"
    },
    {
      "inputs": [],
      "name": "id_count",
      "outputs": [
        {
          "internalType": "uint256",
          "name": "",
          "type": "uint256"
        }
      ],
      "stateMutability": "view",
      "type": "function"
    },
    {
      "inputs": [
        {
          "internalType": "uint256",
          "name": "game_id",
          "type": "uint256"
        }
      ],
      "name": "joinGame",
      "outputs": [],
      "stateMutability": "payable",
      "type": "function"
    },
    {
      "inputs": [
        {
          "internalType": "uint256",
          "name": "game_id",
          "type": "uint256"
        },
        {
          "internalType": "uint8",
          "name": "col",
          "type": "uint8"
        },
        {
          "internalType": "bool",
          "name": "claim",
          "type": "bool"
        }
      ],
      "name": "move",
      "outputs": [],
      "stateMutability": "nonpayable",
      "type": "function"
    },
    {
      "inputs": [
        {
          "internalType": "uint256",
          "name": "game_id",
          "type": "uint256"
        }
      ],
      "name": "viewBoard",
      "outputs": [
        {
          "internalType": "uint8[7][6]",
          "name": "",
          "type": "uint8[7][6]"
        }
      ],
      "stateMutability": "view",
      "type": "function"
    }
  ],
  "bytecode": "6080604052600160005534801561001557600080fd5b50600280546001600160a01b03191633179055610c3d806100376000396000f3fe6080604052600436106100705760003560e01c8063b2dd9fa21161004e578063b2dd9fa2146100d9578063ba0ffc1d146100f9578063d61a23f51461010c578063efaa55a0146101b757600080fd5b806315174013146100755780637255d729146100ab578063821f5fa7146100b5575b600080fd5b34801561008157600080fd5b50610095610090366004610a7e565b6101ca565b6040516100a29190610a97565b60405180910390f35b6100b3610265565b005b3480156100c157600080fd5b506100cb60005481565b6040519081526020016100a2565b3480156100e557600080fd5b506100b36100f4366004610af5565b6102ff565b6100b3610107366004610b42565b6105a3565b34801561011857600080fd5b50610176610127366004610a7e565b600160208190526000918252604090912080549181015460028201546003830154600a840154600b850154600c909501546001600160a01b039687169694851695939460ff9093169391921687565b604080516001600160a01b03988916815296881660208801528601949094529115156060850152608084015260a083015290911660c082015260e0016100a2565b6100b36101c5366004610a7e565b610710565b6101d2610a33565b600082815260016020526040808220815160c081019092529091600490910190600690835b8282101561025a576040805160e08101918290529085840190600790826000855b825461010083900a900460ff168152602060019283018181049485019490930390920291018084116102185790505050505050815260200190600101906101f7565b505050509050919050565b60008054815260016020908152604080832080546001600160a01b03191633908117909155835484528184203460029091018190558454855282852042600a9091015593548251908152928301528101919091527f7dfb67e9ff596fca4da65c7eedb128cd1aac553af54b3c0cb733625a2480d8bd9060600160405180910390a160016000808282546102f89190610b94565b9091555050565b60078260ff16106103485760405162461bcd60e51b815260206004820152600e60248201526d24b73b30b634b21031b7b63ab6b760911b60448201526064015b60405180910390fd5b6000838152600160205260409020600381015460ff166103c65780546001600160a01b031633146103b25760405162461bcd60e51b81526020600482015260146024820152734974206973206e6f7420796f7572207475726e2160601b604482015260640161033f565b60038101805460ff19166001179055610426565b60018101546001600160a01b031633146104195760405162461bcd60e51b81526020600482015260146024820152734974206973206e6f7420796f7572207475726e2160601b604482015260640161033f565b60038101805460ff191690555b60005b816004018160ff166006811061044157610441610bac565b018460ff166007811061045657610456610bac565b602081049091015460ff601f9092166101000a900416156104835761047c600182610bc2565b9050610429565b600382015460ff161515600114156104e9576001826004018260ff16600681106104af576104af610bac565b018560ff16600781106104c4576104c4610bac565b602091828204019190066101000a81548160ff021916908360ff160217905550610539565b6002826004018260ff166006811061050357610503610bac565b018560ff166007811061051857610518610bac565b602091828204019190066101000a81548160ff021916908360ff1602179055505b6001831515141561059c5760405163ba0ffc1d60e01b815260048101869052336024820152309063ba0ffc1d90604401600060405180830381600087803b15801561058357600080fd5b505af1158015610597573d6000803e3d6000fd5b505050505b5050505050565b600082815260016020526040902080546001600160a01b03838116911614806105db575060018101546001600160a01b038381169116145b61063a5760405162461bcd60e51b815260206004820152602a60248201527f4164647265737320676976656e206973206e6f74206120706c6179657220696e60448201526920746869732067616d6560b01b606482015260840161033f565b80546000906001600160a01b038481169116141561065a5750600161065e565b5060025b610668848261088e565b15156001141561070a5742600b830155600c820180546001600160a01b0319166001600160a01b03851690811790915560028301546040516108fc82150291906000818181858888f193505050501580156106c7573d6000803e3d6000fd5b50604080518581526001600160a01b03851660208201527fb7f35e624e036288272fbf3342c09219261ff29fdddd826989b289134e9ae535910160405180910390a15b50505050565b600081815260016020526040902080546001600160a01b031615801590610742575060018101546001600160a01b0316155b6107855760405162461bcd60e51b815260206004820152601460248201527347616d6520616c726561647920696e20706c617960601b604482015260640161033f565b600c8101546001600160a01b0316156107d85760405162461bcd60e51b815260206004820152601560248201527411d85b5948185b1c9958591e48199a5b9a5cda1959605a1b604482015260640161033f565b806002015434146108225760405162461bcd60e51b81526020600482015260146024820152730aec2cecae440c8decae640dcdee840dac2e8c6d60631b604482015260640161033f565b6001810180546001600160a01b0319163317905560028101805434919060009061084d908490610b94565b9091555050604080518381523360208201527f45c4f9cbafe186141862608c493f28b823fde4c2142bedc3f5169961a73fdd22910160405180910390a15050565b600082815260016020526040812081805b60078160ff1610156109605760005b60068160ff161015610949578560ff16846004018260ff16600681106108d6576108d6610bac565b018360ff16600781106108eb576108eb610bac565b602081049091015460ff601f9092166101000a900416141561091957610912600184610bc2565b925061091e565b600092505b8260ff1660041415610937576001945050505050610a2d565b8061094181610be7565b9150506108ae565b50600091508061095881610be7565b91505061089f565b5060005b60068160ff161015610a255760005b60078160ff161015610a0e578560ff16846004018360ff166006811061099b5761099b610bac565b018260ff16600781106109b0576109b0610bac565b602081049091015460ff601f9092166101000a90041614156109de576109d7600184610bc2565b92506109e3565b600092505b8260ff16600414156109fc576001945050505050610a2d565b80610a0681610be7565b915050610973565b506000915080610a1d81610be7565b915050610964565b506000925050505b92915050565b6040518060c001604052806006905b610a4a610a60565b815260200190600190039081610a425790505090565b6040518060e001604052806007906020820280368337509192915050565b600060208284031215610a9057600080fd5b5035919050565b610540810181836000805b6006811015610aeb57825184835b6007811015610ad257825160ff16825260209283019290910190600101610ab0565b50505060e0939093019260209290920191600101610aa2565b5050505092915050565b600080600060608486031215610b0a57600080fd5b83359250602084013560ff81168114610b2257600080fd5b915060408401358015158114610b3757600080fd5b809150509250925092565b60008060408385031215610b5557600080fd5b8235915060208301356001600160a01b0381168114610b7357600080fd5b809150509250929050565b634e487b7160e01b600052601160045260246000fd5b60008219821115610ba757610ba7610b7e565b500190565b634e487b7160e01b600052603260045260246000fd5b600060ff821660ff84168060ff03821115610bdf57610bdf610b7e565b019392505050565b600060ff821660ff811415610bfe57610bfe610b7e565b6001019291505056fea26469706673582212209d5bd9d104771eb056f91eaa0cb7720262d0bcf89498bd384b96bb0e0b66fee864736f6c63430008090033",
  "bytecodeSha1": "ba687c5f3fa1548c30d921e917ef8851261e9198",
  "compiler": {
    "evm_version": "istanbul",
    "optimizer": {
      "enabled": true,
      "runs": 200
    },
    "version": "0.8.9+commit.e5eed63a"
  },
  "contractName": "ConnectFour",
  "language": "Solidity",
  "natspec": {
    "kind": "dev",
    "methods": {},
    "version": 1
  },
  "opcodes": "PUSH1 0x80 PUSH1 0x40 MSTORE PUSH1 0x4 CALLDATASIZE LT PUSH2 0x70 JUMPI PUSH1 0x0 CALLDATALOAD PUSH1 0xE0 SHR DUP1 PUSH4 0xB2DD9FA2 GT PUSH2 0x4E JUMPI DUP1 PUSH4 0xB2DD9FA2 EQ PUSH2 0xD9 JUMPI DUP1 PUSH4 0xBA0FFC1D EQ PUSH2 0xF9 JUMPI DUP1 PUSH4 0xD61A23F5 EQ PUSH2 0x10C JUMPI DUP1 PUSH4 0xEFAA55A0 EQ PUSH2 0x1B7 JUMPI PUSH1 0x0 DUP1 REVERT JUMPDEST DUP1 PUSH4 0x15174013 EQ PUSH2 0x75 JUMPI DUP1 PUSH4 0x7255D729 EQ PUSH2 0xAB JUMPI DUP1 PUSH4 0x821F5FA7 EQ PUSH2 0xB5 JUMPI JUMPDEST PUSH1 0x0 DUP1 REVERT JUMPDEST CALLVALUE DUP1 ISZERO PUSH2 0x81 JUMPI PUSH1 0x0 DUP1 REVERT JUMPDEST POP PUSH2 0x95 PUSH2 0x90 CALLDATASIZE PUSH1 0x4 PUSH2 0xA7E JUMP JUMPDEST PUSH2 0x1CA JUMP JUMPDEST PUSH1 0x40 MLOAD PUSH2 0xA2 SWAP2 SWAP1 PUSH2 0xA97 JUMP JUMPDEST PUSH1 0x40 MLOAD DUP1 SWAP2 SUB SWAP1 RETURN JUMPDEST PUSH2 0xB3 PUSH2 0x265 JUMP JUMPDEST STOP JUMPDEST CALLVALUE DUP1 ISZERO PUSH2 0xC1 JUMPI PUSH1 0x0 DUP1 REVERT JUMPDEST POP PUSH2 0xCB PUSH1 0x0 SLOAD DUP2 JUMP JUMPDEST PUSH1 0x40 MLOAD SWAP1 DUP2 MSTORE PUSH1 0x20 ADD PUSH2 0xA2 JUMP JUMPDEST CALLVALUE DUP1 ISZERO PUSH2 0xE5 JUMPI PUSH1 0x0 DUP1 REVERT JUMPDEST POP PUSH2 0xB3 PUSH2 0xF4 CALLDATASIZE PUSH1 0x4 PUSH2 0xAF5 JUMP JUMPDEST PUSH2 0x2FF JUMP JUMPDEST PUSH2 0xB3 PUSH2 0x107 CALLDATASIZE PUSH1 0x4 PUSH2 0xB42 JUMP JUMPDEST PUSH2 0x5A3 JUMP JUMPDEST CALLVALUE DUP1 ISZERO PUSH2 0x118 JUMPI PUSH1 0x0 DUP1 REVERT JUMPDEST POP PUSH2 0x176 PUSH2 0x127 CALLDATASIZE PUSH1 0x4 PUSH2 0xA7E JUMP JUMPDEST PUSH1 0x1 PUSH1 0x20 DUP2 SWAP1 MSTORE PUSH1 0x0 SWAP2 DUP3 MSTORE PUSH1 0x40 SWAP1 SWAP2 KECCAK256 DUP1 SLOAD SWAP2 DUP2 ADD SLOAD PUSH1 0x2 DUP3 ADD SLOAD PUSH1 0x3 DUP4 ADD SLOAD PUSH1 0xA DUP5 ADD SLOAD PUSH1 0xB DUP6 ADD SLOAD PUSH1 0xC SWAP1 SWAP6 ADD SLOAD PUSH1 0x1 PUSH1 0x1 PUSH1 0xA0 SHL SUB SWAP7 DUP8 AND SWAP7 SWAP5 DUP6 AND SWAP6 SWAP4 SWAP5 PUSH1 0xFF SWAP1 SWAP4 AND SWAP4 SWAP2 SWAP3 AND DUP8 JUMP JUMPDEST PUSH1 0x40 DUP1 MLOAD PUSH1 0x1 PUSH1 0x1 PUSH1 0xA0 SHL SUB SWAP9 DUP10 AND DUP2 MSTORE SWAP7 DUP9 AND PUSH1 0x20 DUP9 ADD MSTORE DUP7 ADD SWAP5 SWAP1 SWAP5 MSTORE SWAP2 ISZERO ISZERO PUSH1 0x60 DUP6 ADD MSTORE PUSH1 0x80 DUP5 ADD MSTORE PUSH1 0xA0 DUP4 ADD MSTORE SWAP1 SWAP2 AND PUSH1 0xC0 DUP3 ADD MSTORE PUSH1 0xE0 ADD PUSH2 0xA2 JUMP JUMPDEST PUSH2 0xB3 PUSH2 0x1C5 CALLDATASIZE PUSH1 0x4 PUSH2 0xA7E JUMP JUMPDEST PUSH2 0x710 JUMP JUMPDEST PUSH2 0x1D2 PUSH2 0xA33 JUMP JUMPDEST PUSH1 0x0 DUP3 DUP2 MSTORE PUSH1 0x1 PUSH1 0x20 MSTORE PUSH1 0x40 DUP1 DUP3 KECCAK256 DUP2 MLOAD PUSH1 0xC0 DUP2 ADD SWAP1 SWAP3 MSTORE SWAP1 SWAP2 PUSH1 0x4 SWAP1 SWAP2 ADD SWAP1 PUSH1 0x6 SWAP1 DUP4 JUMPDEST DUP3 DUP3 LT ISZERO PUSH2 0x25A JUMPI PUSH1 0x40 DUP1 MLOAD PUSH1 0xE0 DUP2 ADD SWAP2 DUP3 SWAP1 MSTORE SWAP1 DUP6 DUP5 ADD SWAP1 PUSH1 0x7 SWAP1 DUP3 PUSH1 0x0 DUP6 JUMPDEST DUP3 SLOAD PUSH2 0x100 DUP4 SWAP1 EXP SWAP1 DIV PUSH1 0xFF AND DUP2 MSTORE PUSH1 0x20 PUSH1 0x1 SWAP3 DUP4 ADD DUP2 DUP2 DIV SWAP5 DUP6 ADD SWAP5 SWAP1 SWAP4 SUB SWAP1 SWAP3 MUL SWAP2 ADD DUP1 DUP5 GT PUSH2 0x218 JUMPI SWAP1 POP POP POP POP POP POP DUP2 MSTORE PUSH1 0x20 ADD SWAP1 PUSH1 0x1 ADD SWAP1 PUSH2 0x1F7 JUMP JUMPDEST POP POP POP POP SWAP1 POP SWAP2 SWAP1 POP JUMP JUMPDEST PUSH1 0x0 DUP1 SLOAD DUP2 MSTORE PUSH1 0x1 PUSH1 0x20 SWAP1 DUP2 MSTORE PUSH1 0x40 DUP1 DUP4 KECCAK256 DUP1 SLOAD PUSH1 0x1 PUSH1 0x1 PUSH1 0xA0 SHL SUB NOT AND CALLER SWAP1 DUP2 OR SWAP1 SWAP2 SSTORE DUP4 SLOAD DUP5 MSTORE DUP2 DUP5 KECCAK256 CALLVALUE PUSH1 0x2 SWAP1 SWAP2 ADD DUP2 SWAP1 SSTORE DUP5 SLOAD DUP6 MSTORE DUP3 DUP6 KECCAK256 TIMESTAMP PUSH1 0xA SWAP1 SWAP2 ADD SSTORE SWAP4 SLOAD DUP3 MLOAD SWAP1 DUP2 MSTORE SWAP3 DUP4 ADD MSTORE DUP2 ADD SWAP2 SWAP1 SWAP2 MSTORE PUSH32 0x7DFB67E9FF596FCA4DA65C7EEDB128CD1AAC553AF54B3C0CB733625A2480D8BD SWAP1 PUSH1 0x60 ADD PUSH1 0x40 MLOAD DUP1 SWAP2 SUB SWAP1 LOG1 PUSH1 0x1 PUSH1 0x0 DUP1 DUP3 DUP3 SLOAD PUSH2 0x2F8 SWAP2 SWAP1 PUSH2 0xB94 JUMP JUMPDEST SWAP1 SWAP2 SSTORE POP POP JUMP JUMPDEST PUSH1 0x7 DUP3 PUSH1 0xFF AND LT PUSH2 0x348 JUMPI PUSH1 0x40 MLOAD PUSH3 0x461BCD PUSH1 0xE5 SHL DUP2 MSTORE PUSH1 0x20 PUSH1 0x4 DUP3 ADD MSTORE PUSH1 0xE PUSH1 0x24 DUP3 ADD MSTORE PUSH14 0x24B73B30B634B21031B7B63AB6B7 PUSH1 0x91 SHL PUSH1 0x44 DUP3 ADD MSTORE PUSH1 0x64 ADD JUMPDEST PUSH1 0x40 MLOAD DUP1 SWAP2 SUB SWAP1 REVERT JUMPDEST PUSH1 0x0 DUP4 DUP2 MSTORE PUSH1 0x1 PUSH1 0x20 MSTORE PUSH1 0x40 SWAP1 KECCAK256 PUSH1 0x3 DUP2 ADD SLOAD PUSH1 0xFF AND PUSH2 0x3C6 JUMPI DUP1 SLOAD PUSH1 0x1 PUSH1 0x1 PUSH1 0xA0 SHL SUB AND CALLER EQ PUSH2 0x3B2 JUMPI PUSH1 0x40 MLOAD PUSH3 0x461BCD PUSH1 0xE5 SHL DUP2 MSTORE PUSH1 0x20 PUSH1 0x4 DUP3 ADD MSTORE PUSH1 0x14 PUSH1 0x24 DUP3 ADD MSTORE PUSH20 0x4974206973206E6F7420796F7572207475726E21 PUSH1 0x60 SHL PUSH1 0x44 DUP3 ADD MSTORE PUSH1 0x64 ADD PUSH2 0x33F JUMP JUMPDEST PUSH1 0x3 DUP2 ADD DUP1 SLOAD PUSH1 0xFF NOT AND PUSH1 0x1 OR SWAP1 SSTORE PUSH2 0x426 JUMP JUMPDEST PUSH1 0x1 DUP2 ADD SLOAD PUSH1 0x1 PUSH1 0x1 PUSH1 0xA0 SHL SUB AND CALLER EQ PUSH2 0x419 JUMPI PUSH1 0x40 MLOAD PUSH3 0x461BCD PUSH1 0xE5 SHL DUP2 MSTORE PUSH1 0x20 PUSH1 0x4 DUP3 ADD MSTORE PUSH1 0x14 PUSH1 0x24 DUP3 ADD MSTORE PUSH20 0x4974206973206E6F7420796F7572207475726E21 PUSH1 0x60 SHL PUSH1 0x44 DUP3 ADD MSTORE PUSH1 0x64 ADD PUSH2 0x33F JUMP JUMPDEST PUSH1 0x3 DUP2 ADD DUP1 SLOAD PUSH1 0xFF NOT AND SWAP1 SSTORE JUMPDEST PUSH1 0x0 JUMPDEST DUP2 PUSH1 0x4 ADD DUP2 PUSH1 0xFF AND PUSH1 0x6 DUP2 LT PUSH2 0x441 JUMPI PUSH2 0x441 PUSH2 0xBAC JUMP JUMPDEST ADD DUP5 PUSH1 0xFF AND PUSH1 0x7 DUP2 LT PUSH2 0x456 JUMPI PUSH2 0x456 PUSH2 0xBAC JUMP JUMPDEST PUSH1 0x20 DUP2 DIV SWAP1 SWAP2 ADD SLOAD PUSH1 0xFF PUSH1 0x1F SWAP1 SWAP3 AND PUSH2 0x100 EXP SWAP1 DIV AND ISZERO PUSH2 0x483 JUMPI PUSH2 0x47C PUSH1 0x1 DUP3 PUSH2 0xBC2 JUMP JUMPDEST SWAP1 POP PUSH2 0x429 JUMP JUMPDEST PUSH1 0x3 DUP3 ADD SLOAD PUSH1 0xFF AND ISZERO ISZERO PUSH1 0x1 EQ ISZERO PUSH2 0x4E9 JUMPI PUSH1 0x1 DUP3 PUSH1 0x4 ADD DUP3 PUSH1 0xFF AND PUSH1 0x6 DUP2 LT PUSH2 0x4AF JUMPI PUSH2 0x4AF PUSH2 0xBAC JUMP JUMPDEST ADD DUP6 PUSH1 0xFF AND PUSH1 0x7 DUP2 LT PUSH2 0x4C4 JUMPI PUSH2 0x4C4 PUSH2 0xBAC JUMP JUMPDEST PUSH1 0x20 SWAP2 DUP3 DUP3 DIV ADD SWAP2 SWAP1 MOD PUSH2 0x100 EXP DUP2 SLOAD DUP2 PUSH1 0xFF MUL NOT AND SWAP1 DUP4 PUSH1 0xFF AND MUL OR SWAP1 SSTORE POP PUSH2 0x539 JUMP JUMPDEST PUSH1 0x2 DUP3 PUSH1 0x4 ADD DUP3 PUSH1 0xFF AND PUSH1 0x6 DUP2 LT PUSH2 0x503 JUMPI PUSH2 0x503 PUSH2 0xBAC JUMP JUMPDEST ADD DUP6 PUSH1 0xFF AND PUSH1 0x7 DUP2 LT PUSH2 0x518 JUMPI PUSH2 0x518 PUSH2 0xBAC JUMP JUMPDEST PUSH1 0x20 SWAP2 DUP3 DUP3 DIV ADD SWAP2 SWAP1 MOD PUSH2 0x100 EXP DUP2 SLOAD DUP2 PUSH1 0xFF MUL NOT AND SWAP1 DUP4 PUSH1 0xFF AND MUL OR SWAP1 SSTORE POP JUMPDEST PUSH1 0x1 DUP4 ISZERO ISZERO EQ ISZERO PUSH2 0x59C JUMPI PUSH1 0x40 MLOAD PUSH4 0xBA0FFC1D PUSH1 0xE0 SHL DUP2 MSTORE PUSH1 0x4 DUP2 ADD DUP7 SWAP1 MSTORE CALLER PUSH1 0x24 DUP3 ADD MSTORE ADDRESS SWAP1 PUSH4 0xBA0FFC1D SWAP1 PUSH1 0x44 ADD PUSH1 0x0 PUSH1 0x40 MLOAD DUP1 DUP4 SUB DUP2 PUSH1 0x0 DUP8 DUP1 EXTCODESIZE ISZERO DUP1 ISZERO PUSH2 0x583 JUMPI PUSH1 0x0 DUP1 REVERT JUMPDEST POP GAS CALL ISZERO DUP1 ISZERO PUSH2 0x597 JUMPI RETURNDATASIZE PUSH1 0x0 DUP1 RETURNDATACOPY RETURNDATASIZE PUSH1 0x0 REVERT JUMPDEST POP POP POP POP JUMPDEST POP POP POP POP POP JUMP JUMPDEST PUSH1 0x0 DUP3 DUP2 MSTORE PUSH1 0x1 PUSH1 0x20 MSTORE PUSH1 0x40 SWAP1 KECCAK256 DUP1 SLOAD PUSH1 0x1 PUSH1 0x1 PUSH1 0xA0 SHL SUB DUP4 DUP2 AND SWAP2 AND EQ DUP1 PUSH2 0x5DB JUMPI POP PUSH1 0x1 DUP2 ADD SLOAD PUSH1 0x1 PUSH1 0x1 PUSH1 0xA0 SHL SUB DUP4 DUP2 AND SWAP2 AND EQ JUMPDEST PUSH2 0x63A JUMPI PUSH1 0x40 MLOAD PUSH3 0x461BCD PUSH1 0xE5 SHL DUP2 MSTORE PUSH1 0x20 PUSH1 0x4 DUP3 ADD MSTORE PUSH1 0x2A PUSH1 0x24 DUP3 ADD MSTORE PUSH32 0x4164647265737320676976656E206973206E6F74206120706C6179657220696E PUSH1 0x44 DUP3 ADD MSTORE PUSH10 0x20746869732067616D65 PUSH1 0xB0 SHL PUSH1 0x64 DUP3 ADD MSTORE PUSH1 0x84 ADD PUSH2 0x33F JUMP JUMPDEST DUP1 SLOAD PUSH1 0x0 SWAP1 PUSH1 0x1 PUSH1 0x1 PUSH1 0xA0 SHL SUB DUP5 DUP2 AND SWAP2 AND EQ ISZERO PUSH2 0x65A JUMPI POP PUSH1 0x1 PUSH2 0x65E JUMP JUMPDEST POP PUSH1 0x2 JUMPDEST PUSH2 0x668 DUP5 DUP3 PUSH2 0x88E JUMP JUMPDEST ISZERO ISZERO PUSH1 0x1 EQ ISZERO PUSH2 0x70A JUMPI TIMESTAMP PUSH1 0xB DUP4 ADD SSTORE PUSH1 0xC DUP3 ADD DUP1 SLOAD PUSH1 0x1 PUSH1 0x1 PUSH1 0xA0 SHL SUB NOT AND PUSH1 0x1 PUSH1 0x1 PUSH1 0xA0 SHL SUB DUP6 AND SWAP1 DUP2 OR SWAP1 SWAP2 SSTORE PUSH1 0x2 DUP4 ADD SLOAD PUSH1 0x40 MLOAD PUSH2 0x8FC DUP3 ISZERO MUL SWAP2 SWAP1 PUSH1 0x0 DUP2 DUP2 DUP2 DUP6 DUP9 DUP9 CALL SWAP4 POP POP POP POP ISZERO DUP1 ISZERO PUSH2 0x6C7 JUMPI RETURNDATASIZE PUSH1 0x0 DUP1 RETURNDATACOPY RETURNDATASIZE PUSH1 0x0 REVERT JUMPDEST POP PUSH1 0x40 DUP1 MLOAD DUP6 DUP2 MSTORE PUSH1 0x1 PUSH1 0x1 PUSH1 0xA0 SHL SUB DUP6 AND PUSH1 0x20 DUP3 ADD MSTORE PUSH32 0xB7F35E624E036288272FBF3342C09219261FF29FDDDD826989B289134E9AE535 SWAP2 ADD PUSH1 0x40 MLOAD DUP1 SWAP2 SUB SWAP1 LOG1 JUMPDEST POP POP POP POP JUMP JUMPDEST PUSH1 0x0 DUP2 DUP2 MSTORE PUSH1 0x1 PUSH1 0x20 MSTORE PUSH1 0x40 SWAP1 KECCAK256 DUP1 SLOAD PUSH1 0x1 PUSH1 0x1 PUSH1 0xA0 SHL SUB AND ISZERO DUP1 ISZERO SWAP1 PUSH2 0x742 JUMPI POP PUSH1 0x1 DUP2 ADD SLOAD PUSH1 0x1 PUSH1 0x1 PUSH1 0xA0 SHL SUB AND ISZERO JUMPDEST PUSH2 0x785 JUMPI PUSH1 0x40 MLOAD PUSH3 0x461BCD PUSH1 0xE5 SHL DUP2 MSTORE PUSH1 0x20 PUSH1 0x4 DUP3 ADD MSTORE PUSH1 0x14 PUSH1 0x24 DUP3 ADD MSTORE PUSH20 0x47616D6520616C726561647920696E20706C6179 PUSH1 0x60 SHL PUSH1 0x44 DUP3 ADD MSTORE PUSH1 0x64 ADD PUSH2 0x33F JUMP JUMPDEST PUSH1 0xC DUP2 ADD SLOAD PUSH1 0x1 PUSH1 0x1 PUSH1 0xA0 SHL SUB AND ISZERO PUSH2 0x7D8 JUMPI PUSH1 0x40 MLOAD PUSH3 0x461BCD PUSH1 0xE5 SHL DUP2 MSTORE PUSH1 0x20 PUSH1 0x4 DUP3 ADD MSTORE PUSH1 0x15 PUSH1 0x24 DUP3 ADD MSTORE PUSH21 0x11D85B5948185B1C9958591E48199A5B9A5CDA1959 PUSH1 0x5A SHL PUSH1 0x44 DUP3 ADD MSTORE PUSH1 0x64 ADD PUSH2 0x33F JUMP JUMPDEST DUP1 PUSH1 0x2 ADD SLOAD CALLVALUE EQ PUSH2 0x822 JUMPI PUSH1 0x40 MLOAD PUSH3 0x461BCD PUSH1 0xE5 SHL DUP2 MSTORE PUSH1 0x20 PUSH1 0x4 DUP3 ADD MSTORE PUSH1 0x14 PUSH1 0x24 DUP3 ADD MSTORE PUSH20 0xAEC2CECAE440C8DECAE640DCDEE840DAC2E8C6D PUSH1 0x63 SHL PUSH1 0x44 DUP3 ADD MSTORE PUSH1 0x64 ADD PUSH2 0x33F JUMP JUMPDEST PUSH1 0x1 DUP2 ADD DUP1 SLOAD PUSH1 0x1 PUSH1 0x1 PUSH1 0xA0 SHL SUB NOT AND CALLER OR SWAP1 SSTORE PUSH1 0x2 DUP2 ADD DUP1 SLOAD CALLVALUE SWAP2 SWAP1 PUSH1 0x0 SWAP1 PUSH2 0x84D SWAP1 DUP5 SWAP1 PUSH2 0xB94 JUMP JUMPDEST SWAP1 SWAP2 SSTORE POP POP PUSH1 0x40 DUP1 MLOAD DUP4 DUP2 MSTORE CALLER PUSH1 0x20 DUP3 ADD MSTORE PUSH32 0x45C4F9CBAFE186141862608C493F28B823FDE4C2142BEDC3F5169961A73FDD22 SWAP2 ADD PUSH1 0x40 MLOAD DUP1 SWAP2 SUB SWAP1 LOG1 POP POP JUMP JUMPDEST PUSH1 0x0 DUP3 DUP2 MSTORE PUSH1 0x1 PUSH1 0x20 MSTORE PUSH1 0x40 DUP2 KECCAK256 DUP2 DUP1 JUMPDEST PUSH1 0x7 DUP2 PUSH1 0xFF AND LT ISZERO PUSH2 0x960 JUMPI PUSH1 0x0 JUMPDEST PUSH1 0x6 DUP2 PUSH1 0xFF AND LT ISZERO PUSH2 0x949 JUMPI DUP6 PUSH1 0xFF AND DUP5 PUSH1 0x4 ADD DUP3 PUSH1 0xFF AND PUSH1 0x6 DUP2 LT PUSH2 0x8D6 JUMPI PUSH2 0x8D6 PUSH2 0xBAC JUMP JUMPDEST ADD DUP4 PUSH1 0xFF AND PUSH1 0x7 DUP2 LT PUSH2 0x8EB JUMPI PUSH2 0x8EB PUSH2 0xBAC JUMP JUMPDEST PUSH1 0x20 DUP2 DIV SWAP1 SWAP2 ADD SLOAD PUSH1 0xFF PUSH1 0x1F SWAP1 SWAP3 AND PUSH2 0x100 EXP SWAP1 DIV AND EQ ISZERO PUSH2 0x919 JUMPI PUSH2 0x912 PUSH1 0x1 DUP5 PUSH2 0xBC2 JUMP JUMPDEST SWAP3 POP PUSH2 0x91E JUMP JUMPDEST PUSH1 0x0 SWAP3 POP JUMPDEST DUP3 PUSH1 0xFF AND PUSH1 0x4 EQ ISZERO PUSH2 0x937 JUMPI PUSH1 0x1 SWAP5 POP POP POP POP POP PUSH2 0xA2D JUMP JUMPDEST DUP1 PUSH2 0x941 DUP2 PUSH2 0xBE7 JUMP JUMPDEST SWAP2 POP POP PUSH2 0x8AE JUMP JUMPDEST POP PUSH1 0x0 SWAP2 POP DUP1 PUSH2 0x958 DUP2 PUSH2 0xBE7 JUMP JUMPDEST SWAP2 POP POP PUSH2 0x89F JUMP JUMPDEST POP PUSH1 0x0 JUMPDEST PUSH1 0x6 DUP2 PUSH1 0xFF AND LT ISZERO PUSH2 0xA25 JUMPI PUSH1 0x0 JUMPDEST PUSH1 0x7 DUP2 PUSH1 0xFF AND LT ISZERO PUSH2 0xA0E JUMPI DUP6 PUSH1 0xFF AND DUP5 PUSH1 0x4 ADD DUP4 PUSH1 0xFF AND PUSH1 0x6 DUP2 LT PUSH2 0x99B JUMPI PUSH2 0x99B PUSH2 0xBAC JUMP JUMPDEST ADD DUP3 PUSH1 0xFF AND PUSH1 0x7 DUP2 LT PUSH2 0x9B0 JUMPI PUSH2 0x9B0 PUSH2 0xBAC JUMP JUMPDEST PUSH1 0x20 DUP2 DIV SWAP1 SWAP2 ADD SLOAD PUSH1 0xFF PUSH1 0x1F SWAP1 SWAP3 AND PUSH2 0x100 EXP SWAP1 DIV AND EQ ISZERO PUSH2 0x9DE JUMPI PUSH2 0x9D7 PUSH1 0x1 DUP5 PUSH2 0xBC2 JUMP JUMPDEST SWAP3 POP PUSH2 0x9E3 JUMP JUMPDEST PUSH1 0x0 SWAP3 POP JUMPDEST DUP3 PUSH1 0xFF AND PUSH1 0x4 EQ ISZERO PUSH2 0x9FC JUMPI PUSH1 0x1 SWAP5 POP POP POP POP POP PUSH2 0xA2D JUMP JUMPDEST DUP1 PUSH2 0xA06 DUP2 PUSH2 0xBE7 JUMP JUMPDEST SWAP2 POP POP PUSH2 0x973 JUMP JUMPDEST POP PUSH1 0x0 SWAP2 POP DUP1 PUSH2 0xA1D DUP2 PUSH2 0xBE7 JUMP JUMPDEST SWAP2 POP POP PUSH2 0x964 JUMP JUMPDEST POP PUSH1 0x0 SWAP3 POP POP POP JUMPDEST SWAP3 SWAP2 POP POP JUMP JUMPDEST PUSH1 0x40 MLOAD DUP1 PUSH1 0xC0 ADD PUSH1 0x40 MSTORE DUP1 PUSH1 0x6 SWAP1 JUMPDEST PUSH2 0xA4A PUSH2 0xA60 JUMP JUMPDEST DUP2 MSTORE PUSH1 0x20 ADD SWAP1 PUSH1 0x1 SWAP1 SUB SWAP1 DUP2 PUSH2 0xA42 JUMPI SWAP1 POP POP SWAP1 JUMP JUMPDEST PUSH1 0x40 MLOAD DUP1 PUSH1 0xE0 ADD PUSH1 0x40 MSTORE DUP1 PUSH1 0x7 SWAP1 PUSH1 0x20 DUP3 MUL DUP1 CALLDATASIZE DUP4 CALLDATACOPY POP SWAP2 SWAP3 SWAP2 POP POP JUMP JUMPDEST PUSH1 0x0 PUSH1 0x20 DUP3 DUP5 SUB SLT ISZERO PUSH2 0xA90 JUMPI PUSH1 0x0 DUP1 REVERT JUMPDEST POP CALLDATALOAD SWAP2 SWAP1 POP JUMP JUMPDEST PUSH2 0x540 DUP2 ADD DUP2 DUP4 PUSH1 0x0 DUP1 JUMPDEST PUSH1 0x6 DUP2 LT ISZERO PUSH2 0xAEB JUMPI DUP3 MLOAD DUP5 DUP4 JUMPDEST PUSH1 0x7 DUP2 LT ISZERO PUSH2 0xAD2 JUMPI DUP3 MLOAD PUSH1 0xFF AND DUP3 MSTORE PUSH1 0x20 SWAP3 DUP4 ADD SWAP3 SWAP1 SWAP2 ADD SWAP1 PUSH1 0x1 ADD PUSH2 0xAB0 JUMP JUMPDEST POP POP POP PUSH1 0xE0 SWAP4 SWAP1 SWAP4 ADD SWAP3 PUSH1 0x20 SWAP3 SWAP1 SWAP3 ADD SWAP2 PUSH1 0x1 ADD PUSH2 0xAA2 JUMP JUMPDEST POP POP POP POP SWAP3 SWAP2 POP POP JUMP JUMPDEST PUSH1 0x0 DUP1 PUSH1 0x0 PUSH1 0x60 DUP5 DUP7 SUB SLT ISZERO PUSH2 0xB0A JUMPI PUSH1 0x0 DUP1 REVERT JUMPDEST DUP4 CALLDATALOAD SWAP3 POP PUSH1 0x20 DUP5 ADD CALLDATALOAD PUSH1 0xFF DUP2 AND DUP2 EQ PUSH2 0xB22 JUMPI PUSH1 0x0 DUP1 REVERT JUMPDEST SWAP2 POP PUSH1 0x40 DUP5 ADD CALLDATALOAD DUP1 ISZERO ISZERO DUP2 EQ PUSH2 0xB37 JUMPI PUSH1 0x0 DUP1 REVERT JUMPDEST DUP1 SWAP2 POP POP SWAP3 POP SWAP3 POP SWAP3 JUMP JUMPDEST PUSH1 0x0 DUP1 PUSH1 0x40 DUP4 DUP6 SUB SLT ISZERO PUSH2 0xB55 JUMPI PUSH1 0x0 DUP1 REVERT JUMPDEST DUP3 CALLDATALOAD SWAP2 POP PUSH1 0x20 DUP4 ADD CALLDATALOAD PUSH1 0x1 PUSH1 0x1 PUSH1 0xA0 SHL SUB DUP2 AND DUP2 EQ PUSH2 0xB73 JUMPI PUSH1 0x0 DUP1 REVERT JUMPDEST DUP1 SWAP2 POP POP SWAP3 POP SWAP3 SWAP1 POP JUMP JUMPDEST PUSH4 0x4E487B71 PUSH1 0xE0 SHL PUSH1 0x0 MSTORE PUSH1 0x11 PUSH1 0x4 MSTORE PUSH1 0x24 PUSH1 0x0 REVERT JUMPDEST PUSH1 0x0 DUP3 NOT DUP3 GT ISZERO PUSH2 0xBA7 JUMPI PUSH2 0xBA7 PUSH2 0xB7E JUMP JUMPDEST POP ADD SWAP1 JUMP JUMPDEST PUSH4 0x4E487B71 PUSH1 0xE0 SHL PUSH1 0x0 MSTORE PUSH1 0x32 PUSH1 0x4 MSTORE PUSH1 0x24 PUSH1 0x0 REVERT JUMPDEST PUSH1 0x0 PUSH1 0xFF DUP3 AND PUSH1 0xFF DUP5 AND DUP1 PUSH1 0xFF SUB DUP3 GT ISZERO PUSH2 0xBDF JUMPI PUSH2 0xBDF PUSH2 0xB7E JUMP JUMPDEST ADD SWAP4 SWAP3 POP POP POP JUMP JUMPDEST PUSH1 0x0 PUSH1 0xFF DUP3 AND PUSH1 0xFF DUP2 EQ ISZERO PUSH2 0xBFE JUMPI PUSH2 0xBFE PUSH2 0xB7E JUMP JUMPDEST PUSH1 0x1 ADD SWAP3 SWAP2 POP POP JUMP INVALID LOG2 PUSH5 0x6970667358 0x22 SLT KECCAK256 SWAP14 JUMPDEST 0xD9 0xD1 DIV PUSH24 0x1EB056F91EAA0CB7720262D0BCF89498BD384B96BB0E0B66 INVALID 0xE8 PUSH5 0x736F6C6343 STOP ADDMOD MULMOD STOP CALLER ",
  "sha1": "74e91ab0f9e999d0c333a0c4eff14e5ebbd348c3",
  "source": "pragma solidity ^0.8.6;\n\ncontract ConnectFour {\n\n    event GameCreated(uint game_id, address player, uint256 wager);\n    event GameJoined(uint game_id, address player);\n    event GameFinished(uint game_id, address winner);\n\n    struct GAME {\n        address _player1;\n        address _player2;\n        uint256 _wager;\n        bool _turn;\n        uint8[7][6] board;\n        uint256 _blockStart;\n        uint256 _blockEnd;\n        address winner;\n    }\n\n    uint public id_count = 1;\n    mapping(uint => GAME) public GAMES;\n\n    address ADMIN;\n    constructor() {\n        ADMIN = msg.sender;\n    }\n\n    function createGame() public payable {\n        GAMES[id_count]._player1 = msg.sender;\n        GAMES[id_count]._wager = msg.value;\n        GAMES[id_count]._blockStart = block.timestamp;\n        emit GameCreated(id_count, msg.sender, msg.value);\n        id_count += 1;\n    }\n\n    function joinGame(uint256 game_id) public payable {\n        GAME storage game = GAMES[game_id];\n        require(game._player1 != address(0) && game._player2 == address(0), \"Game already in play\");\n        require(game.winner == address(0), \"Game already finished\");\n        require(msg.value == game._wager, \"Wager does not match\");\n        game._player2 = msg.sender;\n        game._wager += msg.value;\n        emit GameJoined(game_id, msg.sender);\n    }\n\n    function move(uint game_id, uint8 col, bool claim) public {\n        require(col < 7, \"Invalid column\");\n        /* check whose turn and switch*/\n        GAME storage game = GAMES[game_id];\n        if (game._turn == false) { require(game._player1 == msg.sender, \"It is not your turn!\"); game._turn = true; }\n        else { require(game._player2 == msg.sender, \"It is not your turn!\"); game._turn = false; }\n\n        //check if valid move\n        uint8 count = 0;\n        while (game.board[count][col] != 0) {\n            count += 1;\n        }\n\n        /* 1 for player1 */\n        if(game._turn == true) {\n            game.board[count][col] = 1;\n        }\n        /* 2 for player2 */\n        else {\n            game.board[count][col] = 2;\n        }\n\n        if(claim == true) { this.claimWin(game_id, msg.sender); }\n    }\n\n    /* Check board logic and send wager to winner */\n    function claimWin(uint game_id, address player) external payable {\n        GAME storage game = GAMES[game_id];\n        require(game._player1 == player || game._player2 == player, \"Address given is not a player in this game\");\n        uint8 player_n;\n        if(game._player1 == player) { player_n = 1; }\n        else { player_n = 2; }\n\n        if(checkBoard(game_id, player_n) == true) {\n            /* Finalize game*/\n            game._blockEnd = block.timestamp;\n            game.winner = player;\n            payable(player).transfer(game._wager);\n            emit GameFinished(game_id, player);\n        }\n    }\n\n    function checkBoard(uint game_id, uint8 player) internal view returns (bool) {\n        GAME storage game = GAMES[game_id];\n\n        uint8 counter = 0;\n        /* Check Horizontal */\n        for(uint8 c = 0; c < 7; c++) {\n            for(uint8 r = 0; r < 6; r++) {\n                if(game.board[r][c] == player) { counter += 1; }\n                else { counter = 0; }\n\n                if(counter == 4) {\n                    return true;\n                }\n            }\n            counter = 0;\n        }\n        /* Check Vertical */\n         for(uint8 r = 0; r < 6; r++) {\n            for(uint8 c = 0; c < 7; c++) {\n                if(game.board[r][c] == player) { counter += 1; }\n                else { counter = 0; }\n\n                if(counter == 4) {\n                    return true;\n                }\n            }\n            counter = 0;\n        }\n\n        /* Check Diagonal Ascending*/\n        /* Check Diagonal Descending*/\n        return false;\n    }\n\n    function viewBoard(uint game_id) public view returns(uint8[7][6] memory) {\n        return GAMES[game_id].board;\n    }\n}\n",
  "sourcePath": "contracts/ConnectFour.sol",
  "type": "contract"
}